:020000040800F2
:10000000380C0020450100081D3200081F3200088E
:1000100023320008273200082B32000800000000BD
:100020000000000000000000000000002F32000867
:100030003132000800000000333200083532000879
:100040005F0100085F0100085F0100085F01000810
:100050005F0100085F010008C72E00085F0100086B
:100060005F0100085F0100085F0100085F010008F0
:100070005F0100085F0100085F0100085F010008E0
:100080005F0100085F0100085F0100085F010008D0
:100090005F0100085F0100085F0100085F010008C0
:1000A0005F0100085F0100085F0100085F010008B0
:1000B0005F0100085F0100085F0100085F010008A0
:1000C0005F0100085F0100085F0100085F01000890
:1000D0005F0100085F0100085F010008EF2E0008C3
:1000E000D92E00085F0100085F0100085F010008C9
:1000F0005F0100085F0100085F0100085F01000860
:100100005F0100085F0100085F0100085F0100084F
:100110005F0100085F010008D53100085F01000899
:100120005F0100085F0100085F0100085F0100082F
:10013000DFF80CD005F08CF800480047992500083E
:10014000380C00200648804706480047FEE7FEE7D7
:10015000FEE7FEE7FEE7FEE7FEE7FEE7FEE7FEE777
:1001600047020008310100080CB500200190009002
:100170006C48006840F480306A49086000BF6948F4
:10018000006800F4003000900198401C0190009835
:1001900018B90198B0F5A06FF1D16248006800F479
:1001A000003010B10120009001E000200090009884
:1001B000012843D15C48006840F010005A490860AB
:1001C0000846006820F0030008600846006840F018
:1001D0000200086053484068524948600846406839
:1001E00048600846406840F48060486008464068BF
:1001F00020F47C1048600846406840F4E8104860ED
:100200000846006840F08070086000BF45480068FC
:1002100000F000700028F9D04248406820F0030048
:10022000404948600846406840F00200486000BF0E
:100230003C48406800F00C000828F9D10CBD10B50E
:10024000FFF792FF10BD10B53648006840F001007E
:1002500034490860084640683449084031494860DC
:1002600008460068324908402E4908600846006880
:1002700020F4802008600846406820F4FE004860B2
:100280004FF41F008860FFF7DAFF4FF00060294944
:10029000086010BD10B5002100200022214B5B68D2
:1002A00003F00C0121B1042906D0082928D107E068
:1002B000214B224C236027E01F4B204C236023E07E
:1002C000184B5B6803F47010164B5B6803F48032C4
:1002D000022303EB904022B9194B4343174C236090
:1002E0000DE0104B5B6803F4003323B1144B434320
:1002F000124C236003E0104B4343104C236003E097
:100300000D4B0E4C236000BF00BF064B5B68C3F370
:1003100003130C4CE15C094B1B68CB40074C23607A
:1003200010BD000000100240002002400000FFF855
:10033000FFFFF6FE08ED00E000127A00000000204A
:1003400000093D000400002031490143314A116099
:10035000704770B5002100230F22C47804B32D4CE0
:10036000246804F4E064C4F5E064210AC1F10403E4
:10037000CA40447804FA03F1847814402143090107
:10038000254C0678A155047804F01F050124AC40E3
:1003900005786D11AD0005F1E025C5F8004109E0D3
:1003A000047804F01F050124AC401C4D067876113A
:1003B00045F8264070BD1A4A0A400243154B1B1FE0
:1003C0001A60704739B1134A121D12680243114B6B
:1003D0001B1D1A6006E00F4A121D126882430D4B66
:1003E0001B1D1A607047042808D14FF0E0210969ED
:1003F00041F004014FF0E022116107E04FF0E021ED
:10040000096921F004014FF0E022116170470000FA
:100410000000FA050CED00E000E400E080E100E0FF
:1004200080FFFF1F002044490860091D0860091D66
:100430000860091D086041483F4914310860704751
:1004400000213D498279002A3AD00A4612680368A1
:100450009A430B461A600A1D126803689A430B1DE3
:100460001A60027911440A6803681A430A60324A22
:100470000832126803689A432F4B08331A601A1D1A
:10048000126803689A432C4B0C331A604279102A85
:100490000ED11A1F126803681A43274B08331A60DB
:1004A0001A1D126803681A43234B0C331A600DE0BF
:1004B0002149427911440A6803681A430A6005E039
:1004C000027911440A6803689A430A607047002160
:1004D000016001710C214171002181717047164941
:1004E000103109680143144A103211607047014607
:1004F0000020114A143212680A400AB1012000E0BB
:10050000002070470C4914310860704701460020F4
:100510000022094B1B6803EA0102074B14331B68D6
:100520000B4013B10AB1012000E0002070470249DE
:10053000143108607047000000040140FFFF0F0005
:1005400030B943F2DB028100A1F1C0410A6005E04D
:1005500043F2D2028100A1F1C0410A606FF0704203
:10056000411C8900A1F1C0410A608100A1F1C04194
:10057000C1F80421704710280AD118214FF02042F9
:100580001166402151664FF0FC319166D16610E052
:100590001821F74A116040214FF02042C2F8841020
:1005A0004FF0FC31F24A083211604FF02042C2F89D
:1005B0008C1070471820EE49203108600020090691
:1005C000C1F8A4004FF0FC30E94928310860091D4A
:1005D0000860091D08607047D0E901121143C26824
:1005E0001143026911434269114382691143C2698F
:1005F0001143026A1143426A1143826A1143C26A7B
:100600001143026B114302689200A2F1C0421160D3
:10061000816808290BD101688900A1F1C0410968EE
:1006200041F0400201688900A1F1C0410A60416BBC
:100630000968426B526841EA0211426B926841EAD2
:100640000221426B928941EA0241426B128A41EADD
:100650000251426B127D41EA0261426B9269114381
:100660000268521C9200A2F1C0421160C16AB1F549
:10067000804F1BD1816B0968826B526841EA02117D
:10068000826B926841EA0221826B128A41EA02512E
:10069000826B127D41EA0261826B926911430268AA
:1006A0009200A2F1C042C2F8041107E06FF070425C
:1006B00001688900A1F1C041C1F80421704730B53B
:1006C000002100220023446844F0080485682C437C
:1006D000C5682C4305692C43456944EA452485696E
:1006E00044EA4531C4692468C5696D6844EA052453
:1006F000C5692D8944EA0544C5692D7B44EA056234
:10070000046A2468056A6D6844EA0524056A2D892F
:1007100044EA0544056A2D7B44EA05630468102C0D
:1007200005D14FF020442166A266E36608E0904CB4
:1007300021604FF02044C4F888208D4C0C34236095
:1007400030BD016841F01001426841EA42218268EF
:1007500041EA4231864A20321160C1680968C268A4
:10076000526841EA0221C268128941EA0241C26824
:10077000127B41EA02617E4A2832116001690968F0
:100780000269526841EA02210269128941EA024182
:100790000269127B41EA0261754A2C32116041699B
:1007A00009684269526841EA02214269128941EAB4
:1007B00002414269127B41EA02614FF02042C2F8D5
:1007C000B01070470021016002214160002181606A
:1007D000C160016141618161C16101624FF4805179
:1007E0004162490081620021C16201630F21426BB5
:1007F0001160426B5160FF21426B91600F21426B8F
:10080000D160426B1161426B51610021426B916179
:100810000F21826B1160826B5160FF21826B9160AE
:100820000F21826BD160826B1161826B516100215B
:10083000826B9161704710210160002141608160ED
:10084000C160016141618161FC21C2691160C269BD
:100850005160C2699160C269D160026A1160026A26
:100860005160026A9160026AD160704700210160A4
:1008700041608160FC21C2681160C2685160C26839
:100880009160C268D16002691160026951600269B9
:1008900091600269D16042691160426951604269A8
:1008A00091604269D160704751B18200A2F1C042AB
:1008B000126842F001038200A2F1C042136009E015
:1008C0008200A2F1C04212682A4B1A408300A3F1B1
:1008D000C0431A60704799B1102808D14FF02042E8
:1008E000126E42F004024FF020431A661DE0204AC7
:1008F000126842F004024FF02043C3F8802014E055
:10090000102809D14FF02042126E1A4BDB1E1A40FC
:100910004FF020431A6608E0154A1268154BDB1E9B
:100920001A404FF02043C3F88020704748B1104967
:100930002031096841F004014FF02042C2F8A010B4
:1009400009E00B49203109680A4AD21E11404FF0D4
:100950002042C2F8A0107047B9B110280CD14FF056
:100960002042126E42F040024FF020431A661FE010
:10097000800000A0FEFF0F00724A126842F04002A1
:100980004FF02043C3F8802012E0102808D14FF028
:100990002042126E6C4B1A404FF020431A6607E05B
:1009A000684A1268684B1A404FF02043C3F8802011
:1009B000704701460020102903D14FF02042506FAC
:1009C00002E0604A14321068704710B5F2B1102886
:1009D00007D14FF020435B6E0B434FF0204463661A
:1009E00032E0B0F5807F08D1564B1B1D1B680B43CE
:1009F0004FF02044C4F8843026E0524B24331B6867
:100A00000B434FF02044C4F8A4301DE0102807D158
:100A10004FF020435B6E8B434FF02044636613E03E
:100A2000B0F5807F08D1474B1B1D1B688B434FF0EF
:100A30002044C4F8843007E0424B24331B688B43C6
:100A40004FF02044C4F8A43010BD10B50246002079
:100A50000023102A03D14FF02044636E09E0B2F561
:100A6000807F03D1374C241D236802E0354C2434A9
:100A7000236803EA01040CB1012000E0002010BD4E
:100A8000102807D14FF02042526E8A434FF0204386
:100A90005A6613E0B0F5807F08D12A4A121D126809
:100AA0008A434FF02043C3F8842007E0254A2432CC
:100AB00012688A434FF02043C3F8A420704770B5F2
:100AC00002460020002300240025102A03D14FF005
:100AD0002046736E09E0B2F5807F03D1194E361DB2
:100AE000336802E0174E2436336803EA010403EA50
:100AF000D10514B10DB1012000E0002070BD102817
:100B000008D14FF02042526E22EAD1024FF020432A
:100B10005A6615E0B0F5807F09D10A4A121D1268A5
:100B200022EAD1024FF02043C3F8842008E0054AAE
:100B30002432126822EAD1024FF02043C3F8A420E5
:100B400070470000800000A0BFFF0F0010B50446F2
:100B5000CC48844208D10121042000F02DFB002163
:100B6000042000F029FB46E0C748844208D1012157
:100B7000082000F021FB0021082000F01DFB3AE0D6
:100B8000C248844208D10121102000F015FB002149
:100B9000102000F011FB2EE0BD48844208D1012155
:100BA000202000F009FB0021202000F005FB22E0BE
:100BB000B848844208D10121402000F0FDFA00210C
:100BC000402000F0F9FA16E0B348844208D1012130
:100BD000802000F0F1FA0021802000F0EDFA0AE018
:100BE000AE48844207D10121801500F0E5FA0021CA
:100BF000A01500F0E1FA10BD10B50121084600F083
:100C0000DBFA0021012000F0D7FA10BD2DE9F041F8
:100C1000024600250026002000230024002791F82A
:100C200003C00CF00F0591F803C00CF0100CBCF1E0
:100C3000000F03D091F802C04CEA050591F800C0FE
:100C4000BCF1000F31D0146800202BE04FF0010CF4
:100C50000CFA00F3B1F800C00CEA03069E4220D162
:100C600083004FF00F0C0CFA03F7BC4305FA03FCAA
:100C70004CEA040491F803C0BCF1280F06D14FF0F0
:100C8000010C0CFA00FCC2F814C00AE091F803C091
:100C9000BCF1480F05D14FF0010C0CFA00FCC2F872
:100CA00010C0401C0828D1D31460B1F800C0BCF1BA
:100CB000FF0F34DD546800202EE000F1080C4FF0E7
:100CC000010808FA0CF3B1F800C00CEA03069E42D2
:100CD00021D183004FF00F0C0CFA03F7BC4305FA47
:100CE00003FC4CEA040491F803C0BCF1280F05D1C1
:100CF00000F1080C08FA0CF8C2F8148091F803C04F
:100D0000BCF1480F07D100F1080C4FF0010808FAB8
:100D10000CF8C2F81080401C0828CED35460BDE8FF
:100D2000F0814FF6FF710180022181700421C170B2
:100D300070470246002093680B400BB1012000E091
:100D4000002070470146886880B270470246002044
:100D5000D3680B400BB1012000E000207047014632
:100D6000C86880B2704701617047416170470AB13D
:100D7000016100E041617047C16070474FF480320B
:100D80000A43826181618261826982697047024699
:100D90000020434B18684FF68073184040EA021059
:100DA00008433F4B186070473E49C8617047F0B533
:100DB0000A46002300240021002500F00046B6F179
:100DC000004F02D1364EF16901E0354E7168C0F333
:100DD000034583B200F44016B6F5401F08D121F058
:100DE00070612F4E766826F070662D4F7E6012E09F
:100DF00000F48016B6F5801F06D1032606FA05F426
:100E0000A14341F0706106E0460D360103FA06F693
:100E1000B14341F0706122B1460D360103FA06F686
:100E2000314300F00046B6F1004F02D11C4EF16193
:100E300001E01B4E7160F0BD30B500228B071C0F26
:100E40000F2303FA04F2164B08338C1053F82430A6
:100E50009343134C08348D1044F8253023468C10EE
:100E600053F824308C07240F00FA04F423430C4C6D
:100E700008348D1044F8253030BD0A49DC31086053
:100E80007047000000080140000C014000100140C4
:100E90000014014000180140001C014000200140E6
:100EA0000000014000002042DF48006840F00100DF
:100EB000DD49086008464068DC490840DA49486076
:100EC00008460068DA490840D749086008460068C3
:100ED00020F4802008600846406820F4FE00486046
:100EE0004FF41F0088607047CF49096821F48031B2
:100EF000CD4A11601146096821F480211160B0F5D6
:100F0000803F03D0B0F5802F0ED106E0C6490968B6
:100F100041F48031C44A116007E0C349096841F4D3
:100F2000A021C14A116000E000BF00BF704710B5AA
:100F300001460022002300204A11012A02D1BA4CA6
:100F4000236806E0022A02D1B74C236A01E0B64CBE
:100F5000636A01F01F02012494401C400CB101207F
:100F600000E0002010BD38B50020009000240025CE
:100F700000BF3120FFF7DBFF05460098401C0090C2
:100F80000098B0F5A06F01D0002DF2D03120FFF70E
:100F9000CEFF08B1012400E00024204638BD014600
:100FA0000020A14A106820F0F80040EAC10010605B
:100FB0007047A04908607047024600209A4B586865
:100FC00020F47C1042EA01031843974B58607047A5
:100FD00098490866704701460020934A506820F0FF
:100FE00003000843506070478F48406800F00C00D1
:100FF0007047014600208C4A506820F0F0000843FA
:101000005060704701460020874A506820F4E06035
:1010100008435060704701460020834A506820F41E
:10102000605040EAC1005060704729B17E4A527A50
:1010300002437D4B5A7204E07B4A527A82437A4BD8
:101040005A7270477B49D8310860704701460020CA
:10105000754A506820F440400843506070470021B2
:10106000714A20321170704A82F82010012802D093
:1010700004280AD104E001216B4A2032117005E0F6
:101080000521694A2032117000E000BF00BF70479F
:101090006949086070476449096A0143624A1162FC
:1010A0007047654944390860704730B50021002217
:1010B000002400235C4D6D6805F00C0121B104296A
:1010C00005D0082923D105E05C4D056022E05B4D89
:1010D00005601FE0544D6D6805F47012524D6D6847
:1010E00005F48034022505EB92421CB9544D55435A
:1010F00005600BE04C4D6D6805F400351DB1504D99
:101100005543056002E04D4D5543056002E04B4DEF
:10111000056000BF00BF444D6D6805F0F00109098E
:10112000484D6B5C0568DD4045603F4D6D6805F4DA
:10113000E061090A434D6B5C4568DD4085603A4DCE
:101140006D6805F46051C90A3E4D6B5C4568DD4031
:10115000C560354D6D6805F44041890B3A4D6B5CB7
:10116000C568B5FBF3F5056130BD29B12E4A52695A
:1011700002432D4B5A6104E02B4A526982432A4BA9
:101180005A61704729B1284A92690243264B9A61F5
:1011900004E0254A92698243234B9A61704729B142
:1011A000214AD2690243204BDA6104E01E4AD26927
:1011B00082431D4BDA61704729B11B4AD268024352
:1011C000194BDA6004E0184AD2688243164BDA60A1
:1011D000704729B1144A12690243134B1A6104E0A3
:1011E000114A12698243104B1A6170471249403903
:1011F000086070470F49C86470470B49C871704751
:101200000948406A40F080700749486270470146CB
:101210000020054A92680A400AB1012000E000203F
:101220007047014988727047001002400000FFF8C3
:10123000FFFFF6FE000042428004424200127A00A4
:1012400000093D00140000202400002010B50446D1
:10125000FE48844208D10121C014FFF7ADFF0021F0
:10126000E014FFF7A9FFC4E0B4F1804F08D10121D9
:101270000846FFF7AEFF00210120FFF7AAFFB8E004
:10128000F348844208D101210220FFF7A2FF002188
:101290000220FFF79EFFACE0EE48844208D1012116
:1012A0000420FFF796FF00210420FFF792FFA0E043
:1012B000E948844208D101210820FFF78AFF002174
:1012C0000820FFF786FF94E0E448844208D101211A
:1012D0001020FFF77EFF00211020FFF77AFF88E043
:1012E000DF48844208D101212020FFF772FF00214E
:1012F0002020FFF76EFF7CE0DA48844208D101210C
:101300004014FFF759FF00216014FFF755FF70E00C
:10131000D548844209D10121C804FFF74DFF0021BF
:101320004FF40020FFF748FF63E0D048844209D122
:1013300001210805FFF740FF00214FF48010FFF75F
:101340003BFF56E0CA48844209D101214805FFF716
:1013500033FF00214FF40010FFF72EFF49E0C5488E
:10136000844208D101214020FFF733FF00214020B3
:10137000FFF72FFF3DE0C048844208D101218020C3
:10138000FFF727FF00218020FFF723FF31E0BB4854
:10139000844208D101218015FFF71BFF0021A01511
:1013A000FFF717FF25E0B648844209D10121080460
:1013B000FFF702FF00214FF48030FFF7FDFE18E039
:1013C000B048844209D101214804FFF7F5FE00210D
:1013D0004FF40030FFF7F0FE0BE0AB48844208D139
:1013E00001218804FFF7E8FE00214FF48020FFF779
:1013F000E3FE10BD00220288944B98420ED0994B18
:1014000098420BD0B0F1804F08D0914B984205D054
:10141000904B984202D0904B984204D14FF68F7374
:101420001A404B881A438D4B984207D08C4B9842F8
:1014300004D04FF6FF431A40CB881A4302808B88B2
:1014400083850B880385814B98420BD0854B98424E
:1014500008D08B4B984205D08A4B984202D08A4BD9
:10146000984201D10B7A038601238382704770B5BD
:10147000002400220023058C4FF6FE7635400584BB
:10148000028C8388048B4FF68F752C40B51E2C4040
:101490000D882C43751E2A400D892A434D882A4306
:1014A0006A4DA8420BD06F4DA84208D0744DA84297
:1014B00005D0744DA84202D0734DA84213D14FF607
:1014C000F7752A404D892A434FF6FB752A408D88CF
:1014D0002A434FF6FF652B404FF6FF552B408D8971
:1014E0002B43CD892B4383800483CD88858602845A
:1014F00070BD70B5002400220023058C4FF6EF76F6
:1015000035400584028C8388048B48F6FF752C4097
:101510004FF6FF452C400D884FF6FF7606EA05256D
:101520002C434FF6DF752A400D8906EA05152A433C
:101530004D8806EA05152A43444DA84202D0494D7C
:10154000A8421DD14FF67F752A404D894FF6FF7690
:1015500006EA05152A434FF6BF752A408D8806EA2C
:1015600005152A434FF6FF352B404FF2FF752B40F0
:101570008D8906EA85052B43CD8906EA85052B432F
:1015800083800483CD880587028470BD70B50024F4
:1015900000220023058C4FF6FF6635400584028C3F
:1015A0008388848B4FF68F752C404FF6FC752C404A
:1015B0000D882C434FF6FF552A400D894FF6FF76D4
:1015C00006EA05252A434D8806EA05252A431F4DCC
:1015D000A84202D0234DA8421DD14FF2FF752A40E8
:1015E0004D894FF6FF7606EA05252A434FF6FF356B
:1015F0002A408D8806EA05252A434EF6FF752B40C2
:101600004DF6FF752B408D8906EA05152B43CD89D4
:1016100006EA05152B4383808483CD888587028461
:1016200070BD70B5002200230024058C4EF6FF76B5
:1016300035400584038C8488828B48F6FF752A40E8
:101640004FF6FF452A400D8820E00000002C0140A5
:101650000004004000080040000C00400010004062
:101660000014004000340140004C01400050014093
:101670000054014000180040001C004000200040C1
:101680000040014000440140004801404FF6FF7611
:1016900006EA05252A434DF6FF752B400D8906EA1B
:1016A00005352B434D8806EA05352B43FA4DA842F4
:1016B00002D0FA4DA84208D14BF6FF752C408D8917
:1016C0004FF6FF7606EA85152C4384808283CD8809
:1016D000A0F84050038470BD828B4FF2FF331A4054
:1016E0008283828B4FF6FF7303EA01231A438283BE
:1016F0007047F0B50C461546002200210026078CE5
:101700004EF6FF7C07EA0C070784828B018C4FF6AC
:10171000FF7707EA043640F6FF473A404FF6FF7777
:1017200007EA05273A434FF6FF7707EA03373A43BC
:10173000D94FB8420ED0D94FB8420BD0B0F1804F3C
:1017400008D0D74FB84205D0D64FB84202D0D64FB6
:10175000B84206D14DF6FF77394046F480573943F9
:1017600005E047F6FF57394044F4805739438283F8
:101770000184F0BD828B4FF6F3731A408283828B13
:101780000A4382837047F0B50C46154600220021BB
:101790000026078C4FF6FF6C07EA0C070784828B44
:1017A000018C4FF6FF7707EA04264FF60C773A4094
:1017B0004FF6FF7707EA03172F433A43B64FB84275
:1017C0000ED0B64FB8420BD0B0F1804F08D0B44F16
:1017D000B84205D0B34FB84202D0B34FB84206D199
:1017E0004FF6FF57394046F48077394305E04FF212
:1017F000FF57394044F48077394382830184F0BD38
:10180000028B4FF2FF331A400283028B4FF6FF73B5
:1018100003EA01231A4302837047F0B50C461546CC
:10182000002200210026078C4FF6EF7C07EA0C0708
:101830000784028B018C4FF6FF7707EA041640F607
:10184000FF473A404FF6FF7707EA03373A434FF630
:10185000FF7707EA05273A438F4FB8420ED08F4FE4
:10186000B8420BD0B0F1804F08D08D4FB84205D0B0
:101870008C4FB84202D08C4FB84206D14FF6DF777A
:10188000394046F01007394305E04FF65F7739409D
:1018900044F01007394302830184F0BD028B4FF6F8
:1018A000F3731A400283028B0A4302837047F0B538
:1018B0000C46154600220021068C4FF6FE773E406E
:1018C0000684028B018C4FF60C7632407E1C06EAB1
:1018D00003162E433243704EB0420ED06F4EB042CC
:1018E0000BD0B0F1804F08D06D4EB04205D06D4E98
:1018F000B04202D06C4EB04206D14FF6FD76314078
:1019000044F00106314305E04FF6F576314044F0EE
:101910000106314302830184F0BD70B505460C46D3
:101920005D4885420ED05D4885420BD0B5F1804FB1
:1019300008D05B48854205D05A48854202D05A48B3
:10194000854200D100E000BF208850B92389A288D9
:1019500061882846FFF7ABFFE1882846FFF79EFF26
:1019600025E0208804280AD12389A2886188284696
:10197000FFF753FFE1882846FFF742FF17E0208872
:1019800008280AD12389A28861882846FFF7FBFE30
:10199000E1882846FFF7EEFE09E02389A2886188E6
:1019A0002846FFF7A6FEE1882846FFF795FE70BDA2
:1019B0002DE9F04105460C4600260127608808B94C
:1019C000022600E00026A088012801D1022700E0BD
:1019D00001272088A0B92389A28861882846FFF7BB
:1019E00066FFE1882846FFF759FF23893A463146CA
:1019F0002846FFF712FFE1882846FFF701FF13E0B2
:101A00002389A28861882846FFF707FFE1882846D6
:101A1000FFF7F6FE23893A4631462846FFF747FF8F
:101A2000E1882846FFF73AFFBDE8F0810A884B8835
:101A30001A438B881A43CB881A430B891A434B8964
:101A40001A438B891A43A0F8442070474FF6FF7160
:101A5000818000210180C180418001727047002196
:101A6000018041808180C180018141818181C1816A
:101A70007047002101804180012181800021C180C7
:101A8000018170470021018041808180C1800181F6
:101A90004181818170470000002C014000340140E9
:101AA0000004004000080040000C004021B1028802
:101AB00042F00102028004E002884FF6FE731A40F1
:101AC0000280704731B1B0F8442042F40042A0F8DF
:101AD000442005E0B0F84420C2F30E02A0F84420F0
:101AE00070471AB183890B43838102E083898B435A
:101AF000838170478182704741EA0203A0F8483031
:101B000070471AB183890B43838102E083898B4339
:101B10008381704701894FF6F87211400181704747
:101B20000A46002101894FF68F7319401143018144
:101B3000704730B504460D4629462046FFF7F0FFB2
:101B4000208940F00700208130BD2DE9F041044696
:101B50000D4616461F46602D06D13B4601223146F2
:101B60002046FFF75AFE05E03B460122314620465B
:101B7000FFF79DFE29462046FFF7D2FF208940F05F
:101B800007002081BDE8F08130B50C4600210189B5
:101B9000C9B24FF6FF7505EA0325154325432943CE
:101BA000018130BD2DE9F04105460E4617469846A5
:101BB000002443463A4631462846FFF7E5FF2C8984
:101BC0004FF6F870044044F007044FF68F7004405D
:101BD00044F070042C81BDE8F081F0B504460D4658
:101BE00016461F463B46324629462046FFF7CCFFA5
:101BF000208940F480402081F0BD018582827047B9
:101C00000A46002101884FF68F7319401143018065
:101C10007047F0B50C4615461E46002100220023F1
:101C20000189028B038C4FF6F877394021434FF638
:101C3000FC473A4040F201173A434FF6DD773B400C
:101C40004FF6FF7707EA06172F433B4301810283D4
:101C50000384F0BD0A460021018B4FF68F731940B3
:101C60001143018370470A460021018B48F6FF7338
:101C700019404FF6FF7303EA0223194301837047AB
:101C80000A460021818B4FF68F73194011438183DF
:101C900070470A460021818B48F6FF7319404FF6C2
:101CA000FF7303EA022319438183704721B102883D
:101CB00042F08002028004E002884FF67F731A40EF
:101CC0000280704721B1828842F00402828004E0E1
:101CD00082884FF6FB731A408280704721B1828858
:101CE00042F00802828004E082884FF6F7731A40BF
:101CF0008280704721B1828842F00102828004E034
:101D000082884FF6FE731A40828070470A4600218F
:101D1000018B4FF6F77319401143018370470A4650
:101D20000021018B4FF2FF7319404FF6FF7303EA56
:101D300002231943018370470A460021818B4FF625
:101D4000F77319401143818370470A460021818B44
:101D50004FF2FF7319404FF6FF7303EA0223194352
:101D6000818370470A460021018B4FF6FB731940AF
:101D70001143018370470A460021018B4FF6FF3360
:101D800019404FF6FF7303EA02231943018370479A
:101D90000A460021818B4FF6FB7319401143818362
:101DA00070470A460021818B4FF6FF3319404FF6EA
:101DB000FF7303EA02231943818370470A46002117
:101DC000018B4FF67F7319401143018370470A4618
:101DD0000021018BC1F30E014FF6FF7303EA0223CA
:101DE0001943018370470A460021818B4FF67F73A8
:101DF00019401143818370470A460021818BC1F34A
:101E00000E014FF6FF7303EA0223194381837047E3
:101E10000A460021018C4FF6FD73194011430184DD
:101E200070470A460021018C4FF6F77319401143A1
:101E3000018470470A460021018C4FF6DF73194078
:101E40004FF6FF7303EA02131943018470470A46F1
:101E50000021018C4FF67F7319404FF6FF7303EAA0
:101E600002131943018470470A460021018C4FF682
:101E7000FF5319404FF6FF7303EA0223194301840D
:101E800070470A460021018C4FF2FF7319404FF64C
:101E9000FF7303EA02231943018470470A460021B5
:101EA000018C4DF6FF7319404FF6FF7303EA0233BE
:101EB00019430184704730B5002301248C40A3B23C
:101EC000048C9C430484048C02FA01F5ADB22C43CB
:101ED000048430BD30B5002304248C40A3B2048CAC
:101EE0009C430484048C02FA01F5ADB22C430484B3
:101EF00030BD70B503460020002418461830012577
:101F00008D40ACB21D8CA5431D8409B1082909D1AF
:101F100000EB6100056825F0700505600568154354
:101F200005600EE00D1FC5F34E052844056825F435
:101F3000E045056005684FF6FF7606EA0226354360
:101F4000056070BD21B1028842F00202028004E007
:101F500002884FF6FD731A400280704721B1028853
:101F600042F00402028004E002884FF6FB731A403C
:101F70000280704721B1828842F08002828004E0B2
:101F800082884FF67F731A408280704702884FF62E
:101F9000F7731A40028002880A43028070478288E1
:101FA0004FF68F731A40828082880A43828070477E
:101FB00002894FF6F8731A40028102890A430281AE
:101FC000704702894FF67F731A40028102890A43E3
:101FD0000281704781847047818570478186704790
:101FE0000187704781877047A0F8401070470288CA
:101FF0004FF6FF431A40028002880A43028070476E
:102000000146888E70470146088F70470146888FC9
:1020100070470146B1F8400070470146888C704710
:102020000146088D704702460020138A0B400BB111
:10203000012000E000207047CA430282704730B59B
:102040000246002000230024158A05EA0103958931
:1020500005EA010413B10CB1012000E0002030BDFD
:10206000CA4302827047000010B50446FB48844210
:1020700009D101218803FFF79FF800214FF4804028
:10208000FFF79AF832E0F648844209D1012148046A
:10209000FFF79FF800214FF40030FFF79AF825E092
:1020A000F048844209D101218804FFF792F8002109
:1020B0004FF48020FFF78DF818E0EB48844209D1F7
:1020C0000121C804FFF785F800214FF40020FFF735
:1020D00080F80BE0E548844208D101210805FFF7AC
:1020E00078F800214FF48010FFF773F810BD2DE948
:1020F000F04786B005460E460024A24600BFA14622
:102100000027B08900B100BF2F462C8A4CF6FF7023
:102110000440F08804432C82AC894EF6F31004404E
:10212000B08831890843718908430443AC81AC8A83
:102130004FF6FF400440B0890443AC8201A8FEF78B
:10214000B4FFC648874202D1DDF810A001E0DDF8F7
:102150000CA0A88900F4004040B10AEBCA0000EBD3
:102160000A1031684900B0FBF1F807E00AEBCA0039
:1021700000EB0A1031688900B0FBF1F86420B8FB6D
:10218000F0F004012009642101FB1089A88900F402
:10219000004040B1322000EBC900B0FBF1F000F08C
:1021A0000700044308E0322000EB09106421B0FB73
:1021B000F1F000F00F0004432C8106B0BDE8F08779
:1021C0004FF41651016000218180C18001810C21F2
:1021D000418100218181704710B502460020108A9C
:1021E0004FF2FF0318400B884C8823438C8823430D
:1021F000CC8823431843108210BD00210180418008
:102200008180C180704721B1828942F4005282816D
:1022100004E082894DF6FF731A4082817047F0B561
:102220000346002400260025002040F66A17B94224
:1022300000D100BF1846C1F3421401F01F06012768
:1022400007FA06F5012C01D10C3004E0022C01D173
:10225000103000E014301AB107682F43076002E025
:102260000768AF430760F0BD1AB1838A0B438382CE
:1022700002E0838A8B4383827047028A4FF6F073B1
:102280001A400282028A0A430282704782894FF210
:10229000FF731A40828182890A438281704721B18B
:1022A000828942F00202828104E082894FF6FD7346
:1022B0001A4082817047028A4FF6DF731A40028209
:1022C000028A0A430282704721B1028A42F48042A4
:1022D000028204E0028A4BF6FF731A4002827047C2
:1022E000C1F308028280704701468888C0F3080065
:1022F0007047818941F0010181817047028BD2B220
:102300000283028B42EA012202837047028B02F4AD
:102310007F420283028B0A430283704721B1828A83
:1023200042F02002828204E0828A4FF6DF731A4074
:102330008282704721B1828A42F01002828204E0D8
:10234000828A4FF6EF731A408282704721B1828AE7
:1023500042F00802828204E0828A4FF6F7731A4044
:102360008282704721B1828942F40042828103E077
:102370008289C2F30E028281704721B1828A42F4BF
:102380000062828204E0828A4FF2FF731A408282E6
:102390007047828A4FF6FB731A408282828A0A4310
:1023A0008282704721B1828A42F00202828204E076
:1023B000828A4FF6FD731A408282704702460020DF
:1023C000B1F5007F00D100BF13880B400BB1012095
:1023D00000E00020704701F40072B2F5007F00D1E8
:1023E00000BFCA430280704770B502460024002334
:1023F0000025002040F66A16B14200D100BFC1F3AB
:10240000421501F01F03012606FA03F3012D02D144
:102410009689334006E0022D02D1168A334001E04E
:10242000968A33400C12012606FA04F416883440CA
:1024300013B10CB1012000E0002070BD10B50022E6
:10244000002340F66A14A14200D100BF0A12012401
:102450009440A3B2DC43048010BD0000003801406A
:102460000044004000480040004C00400050004044
:1024700070B5FE4800F075FFFD48808814287ADDAD
:102480000024002579E0002411E0F94800682919AA
:10249000405CF849095D884208D0F5480068291970
:1024A000405CF549095D884200D002E0641C092CBB
:1024B000EBDB00BF072C2BD1F0A002F0EBFEF6A166
:1024C000FB4802F0F7FE02F023FDC088F9490978C5
:1024D000484386B2304602F030FD02F019FDC08854
:1024E000F4490A780978491CF24B1970504386B2B6
:1024F000EF49304602F07FFC2021EF48FEF735FC23
:10250000EE4800F02EFF2021EB48FEF72CFC38E0CF
:10251000092C31D14FF48071E948FEF726FCE9A07F
:1025200002F0B8FEEEA1E24802F0C4FE02F0F0FCB8
:10253000C088E0490978484386B2304602F0FDFC85
:1025400002F0E6FCC088DB490A780978491CD94BBF
:102550001970504386B2D649304602F04CFC012136
:10256000D548FEF702FCD54800F0FBFE0121D24819
:10257000FEF7F9FB05E00EE06D1CBD488088A8421F
:1025800081DC00BFBA4A9188106802F026FE002064
:10259000B749888000BF70BD0EB502F0FEF9062075
:1025A00002F084F900214FF6FF7002F0B4FCD3482A
:1025B0000388D34802880021084602F049FA00F057
:1025C0003DFE00F099FE00F06FFF01F0D8FB02F035
:1025D00048FD02F088FD02F0BEFD02F0D9FDC9A061
:1025E00002F058FED0A002F055FE4FF48071B448BE
:1025F000FEF7B9FBD14800F0B4FE4FF48071B0484B
:10260000FEF7B3FB0020CE4908700846007800288A
:1026100031D102F0A9FCD0B9CAA1A54802F04AFE06
:1026200002F076FCC488204602F087FC02F070FCC1
:10263000C4889F49204602F0DEFB1421C34801F004
:102640009BF9BF480078401CBD49087013E0C0A149
:10265000974802F02FFE02F05BFCC488204602F08F
:102660006CFC02F055FCC4889149204602F0C3FB83
:102670000020B3490870B14800F073FEB0480078FC
:1026800001284AD10523B5A2B6A1002000F0FBFF26
:10269000002827D001F098F918B1BFA002F0FAFD88
:1026A00002E0C3A002F0F6FDC7A002F0F3FDCBA14B
:1026B0007F4802F0FFFD02F02BFCC0884004040CB0
:1026C000204602F03AFC02F023FCC0884004040CCF
:1026D0007749204602F08FFB99480078401C9849C2
:1026E00008701AE0C0A002F0D5FDC4A1704802F045
:1026F000E1FD02F00DFCC0884004040C204602F00D
:102700001CFC02F005FCC0884004040C684920460B
:1027100002F071FB00208A490870884800F021FE11
:102720008748007802284BD151484FF48073B64A4D
:1027300019460469B548A0474D48B5A2BFA14369F1
:10274000C4A09847F8B1D0A002F0A4FDD2A1584887
:1027500002F0B0FD02F0DCFBC08800EB400084B268
:10276000204602F0EAFB02F0D3FBC08800EB4000F9
:1027700084B24F49204602F03EFB71480078401C6D
:102780006F4908701CE0C6A002F084FDC8A148484B
:1027900002F090FD02F0BCFBC08800EB400084B268
:1027A000204602F0CAFB02F0B3FBC08800EB4000F9
:1027B00084B23F49204602F01EFB002060490870A9
:1027C0005E4800F0CEFD5E480078032844D12848DA
:1027D000012200218369B9A09847002824D0244809
:1027E000012200218369C2A09847E8B1CDA002F080
:1027F00051FDD2A12E4802F05DFD02F089FBC08898
:102800008004040C204602F098FB02F081FBC08893
:102810008004040C2649204602F0EDFA484800786E
:10282000401C4749087017E0C9A002F033FDCEA153
:102830001F4802F03FFD02F06BFBC0888004040CCF
:10284000204602F07AFB02F063FBC0888004040C8F
:102850001749204602F0CFFAC94800F082FD3848F7
:102860000078042800D18DE1C5E1000000093D0099
:1028700048000020330000203A0000200D0A0D0A15
:10288000B5F7D3C3B7FECEF1A3BACDA3D6B9B4B5CD
:10289000B7E70D0A0D0A0000696E766F6B6520734D
:1028A0006572766963653A73746F7046616E000095
:1028B000A400002032000020000C014040420F0024
:1028C000000801400D0A0D0AB5F7D3C3B7FECEF1DB
:1028D000A3BACDA3D6B9D5F0B6AF0D0A0D0A000044
:1028E000696E766F6B6520736572766963653A739E
:1028F000746F704D6F746F720000000076000020DE
:10290000740000200D0A2D2D2D2D2DD6C7C4DCBF3F
:10291000DAD5D6C9E8BCC6B2E2CAD4696E672D2D35
:102920002D2D2D0D0A0000000D0A57694669C1AC16
:10293000BDD3B2E2CAD40D0A00000000400D03006E
:102940002C00002057494649204F4B000803002027
:1029500057494649204641494C0000003138383338
:10296000000000006131303466636F68756C582E6A
:10297000696F742D61732D6D7174742E636E2D7378
:1029800068616E676861692E616C6979756E6373E1
:102990002E636F6D000000000D0ABDF8C8EBCDB8C6
:1029A000B4ABC4A3CABDB3C9B9A60D0A00000000E8
:1029B0000D0ABDF8C8EBCDB8B4ABC4A3CABDCAA755
:1029C000B0DC0D0A000000000D0AC1ACBDD3B7FE9B
:1029D000CEF1C6F7B3C9B9A60D0A00005345525649
:1029E0004552204F4B0000000D0AC1ACBDD3B7FECD
:1029F000CEF1C6F7CAA7B0DC0D0A00005345525607
:102A00004552204641494C000801002008020020A0
:102A100042463038324539303446453331464638FF
:102A20004237364433393332303945353435423222
:102A3000454242384545423200000000536D617204
:102A4000745F4D61736B266131303466636F6875F6
:102A50006C5800003131317C7365637572656D6F40
:102A600064653D332C7369676E6D6574686F643D92
:102A7000686D6163736861312C74696D657374612D
:102A80006D703D3939397C000D0A4D515454204F39
:102A90004B210D0A000000004D515454204F4B00B3
:102AA0000D0A4D515454204641494C210D0A000055
:102AB0004D515454204641496C0000002F737973E6
:102AC0002F6131303466636F68756C582F536D61B8
:102AD00072745F4D61736B2F7468696E672F7365D5
:102AE00072766963652F53746F7046616E000000E3
:102AF0002F7379732F6131303466636F68756C584A
:102B00002F536D6172745F4D61736B2F7468696EC2
:102B1000672F736572766963652F53746F7053689E
:102B2000616B6500537562736372696265546F709F
:102B30006963204F4B210D0A00000000537562733A
:102B40006372696265546F706963204F4B210000A6
:102B5000537562736372696265546F70696320466E
:102B600041494C210D0A000053756273637269621A
:102B700065546F706963204641494C210000000094
:102B800080841E00F3A002F085FBF8A1FD4802F04E
:102B900091FB02F0BDF9C08800EB800084B22046B2
:102BA00002F0CBF902F0B4F9C08800EB800084B2E7
:102BB000F449204602F01FF9F34800F0D2FBF3A0DD
:102BC00002F068FBF8A1EF4802F074FB02F0A0F9F4
:102BD000C08800EB40004004040C204602F0ADF930
:102BE00002F096F9C08800EB40004004040CE5496F
:102BF000204602F000F9E44800F0B3FB62E1012155
:102C0000F04802F05CFA0128F8D10121EE48FEF705
:102C10004DFFEEA002F03EFBEFA1DA4802F04AFBC6
:102C200002F076F9C088C0EBC00084B2204602F002
:102C300084F902F06DF9C088C0EBC00084B2D149BC
:102C4000204602F0D8F8E64800F08BFBE548038800
:102C5000E54802880021084601F0FAFE30E1E3A0D1
:102C600002F018FBE44801F0DAF8012820D0E3A0D4
:102C700002F010FBE6A1EB4802F01CFB02F048F961
:102C8000C088E9490978484384B2204602F055F9E2
:102C900002F03EF9C088E4490A780978491CE24B01
:102CA0001970504384B2DF49204602F0A4F865E071
:102CB000D148C078D0498978CDE90010CE48437812
:102CC0000278DAA1D74802F0F5FAD649E6A002F078
:102CD000E1FAE64800F045FBC748C078C649897864
:102CE000CDE90010C44843780278E1A1A54802F07C
:102CF000E1FA02F00DF9C088CB490978484384B263
:102D0000204602F01AF902F003F9C088C6490A7891
:102D10000978491CC44B1970504384B29949204624
:102D200002F069F8D94800684FF47A71B0FBF1F00D
:102D30003C21B0FBF1F201FB1204D44800684FF4CF
:102D40007A71B0FBF1F03C21B0FBF1F5AA48C078F4
:102D5000A9498978A84A12782346CDE90021029032
:102D60002A46CB49CB4802F0A5FACB480022C949F4
:102D7000C369CAA09847D7A002F08CFAAA48007885
:102D800007280ADB0020A84908709648038896485F
:102D900002880021084601F05BFEFFF769FBB3489B
:102DA00000F0DFFAB948006844F6206188423CD35D
:102DB00000218548FEF77AFE4FF480718148FDF7C7
:102DC000D2FF0020B1490860C6A16E4802F072FA35
:102DD00002F09EF8C088C004040C204602F0ADF852
:102DE00002F096F8C088C004040C6649204602F040
:102DF00002F80122C249A74802F05CFAA648002264
:102E0000A449C369A5A09847984800F0AAFA0122EE
:102E1000BC49A04802F04EFA9F4800229D49C36970
:102E2000B9A09847C5A002F035FA4FF40051C64842
:102E300002F045F901280CD100216348FEF736FE67
:102E40004FF480715F48FDF790FF00208F490860C4
:102E500037E001215B4802F032F9012830D100212E
:102E60005948FEF723FE4FF480715648FDF77DFF69
:102E7000B6A002F00FFAB8A16A4802F01BFA69493D
:102E800079A002F007FA02F043F8C0886649097891
:102E9000484384B2204602F050F802F039F8C08866
:102EA00061490A780978491C5F4B1970504384B214
:102EB0005C49204601F09FFF00207449086000E053
:102EC000CDE600BF9BE610B50120FDF71FFB10B15A
:102ED0000120FDF72CFB10BD10B54FF40050FDF79D
:102EE00015FB18B14FF40050FDF721FB10BD70B574
:102EF00040F225519B48FFF777FA50B39948FFF706
:102F0000F3F9C4B2254698480078FF2802DB002078
:102F100095490870944801780078401C924A1070D6
:102F20009248455410460078114608709048B0F811
:102F30000004C0F30E0040F2FF31884209DA8C49E8
:102F4000B1F80014C1F30E00411C894AB2F8002404
:102F500010E115E1506C65617365207072657373E3
:102F600020746865206B31200D0A0000506C65618B
:102F7000736520707265737320746865206B3120EF
:102F800000000000A400002020A10700507265731B
:102F90007320746865206B3220746F2073746F70B7
:102FA00020626565700D0A00507265737320746845
:102FB00065206B3220746F2073746F7020626565BA
:102FC000700000000008014000100040BFDAD5D6B4
:102FD000D2D1B4F7C9CF0A004D41534B204F4E0018
:102FE00080841E007600002074000020B6C1C8A1B5
:102FF000D6D0A1ADA1AD0A002D00002052656164BC
:10300000204448543131204552524F52210D0A007C
:1030100052656164204448543131204552524F5228
:103020002100000008030020320000200D0AB6C174
:10303000C8A14448543131B3C9B9A6210D0A0D0ABB
:10304000CAAAB6C8CEAA25642E256420A3A55248D4
:1030500020A3ACCEC2B6C8CEAA2025642E2564A17A
:10306000E6200D0A0D0A000025730000A08601006D
:103070004151493A2025642E256420A3AC54656D46
:10308000703A2025642E25640000000028000020EE
:10309000909200086C030020480000202F73797381
:1030A0002F6131303466636F68756C582F536D61D2
:1030B00072745F4D61736B2F7468696E672F6576EC
:1030C000656E742F70726F70657274792F706F7384
:1030D00074000000B7A2B2BCCFFBCFA2B3C9B9A69F
:1030E0000A0000007072657373206B3220616E6499
:1030F000206368616E6765206D61736B000000007E
:1031000020920008B49100082F7379732F61313039
:103110003466636F68756C582F536D6172745F4DC0
:1031200061736B2F7468696E672F6576656E742F97
:103130005368616B652F706F73740000CAC2BCFE68
:10314000C9CFB1A80D0A000000100140BFDAD5D6E2
:10315000D2D1D5AACFC20A004D41534B204F46468B
:10316000000000000048004043000020080200204A
:103170003404002061F30E021E49A1F800240C540F
:1031800040F224411C48FFF72FF910B31948B0F85A
:10319000000420F4004000F500401649A1F80004A6
:1031A0001548FFF7A1F8C4B2254614A1114802F052
:1031B0001FF808B1012000E00020134908700E48F4
:1031C0000088C5B2114800781149888000200F4955
:1031D000087070BD10B501210E48FEF730FF40B1F8
:1031E0000D480068401C0C49086001210948FEF7A1
:1031F00037FF10BD3404002000480040434C4F53BB
:1032000045440D0A000000009C00002043000020FF
:10321000480000200010004028000020704700BF38
:10322000FEE700BFFEE700BFFEE700BFFEE7704716
:103230007047704710B500F0A6F810BD00B585B016
:1032400001218803FDF79EFF01210420FDF79AFF6D
:103250004FF40070ADF8100018208DF81300032013
:103260008DF8120004A92248FDF7D0FC4FF48060CD
:10327000ADF8100004208DF8130004A91C48FDF7D8
:10328000C5FC4FF4E13000900020ADF80400ADF82B
:103290000600ADF80800ADF80C000C20ADF80A00EF
:1032A00069461448FEF723FF01211248FEF7ABFFE1
:1032B00005B000BD70B504460D46E1B20D48FFF7FC
:1032C0000FF800BF80210B48FFF778F80028F9D0ED
:1032D000204670BD10B5044600BF20210548FFF709
:1032E0006DF80028F9D00348FEF7FEFF10BD00007E
:1032F000000801400038014030B527480068274ADF
:10330000B0FBF2F1B1F1807F01D301201DE021F08B
:103310007F40401E4FF0E022506150170F220028DE
:1033200007DA13071D0E1E4B00F00F04241F1D5556
:1033300003E013071C0E1B4B1C5400BF00204FF072
:10334000E022906107201061002008B100BFFEE775
:103350004FF0E020006920F001004FF0E02108610B
:1033600030BD01B51049009808604FF0E0200069B9
:1033700040F001004FF0E021086100BF0A480068FA
:103380000028FBD108BD0848006820B10648006845
:10339000401E0549086070470000002040420F00B1
:1033A00018ED00E000E400E04400002008B54FF410
:1033B000A060FCF7C9FF27208DF8000000208DF8E1
:1033C00001008DF8020001208DF803006846FCF72B
:1033D000C0FF08BD00B585B001218804FDF7DFFE00
:1033E00001210820FDF7CEFE4FF48060ADF81000FB
:1033F00018208DF8130003208DF8120004A9F74857
:10340000FDF704FC4FF40060ADF8100004208DF8C7
:10341000130004A9F148FDF7F9FB4FF4E1300090E7
:103420000020ADF80400ADF80600ADF80800ADF8D6
:103430000C000C20ADF80A006946E948FEF757FE7B
:10344000012240F22551E648FEF7E9FE012240F252
:103450002441E348FEF7E3FEFFF7A8FF0121E0481F
:10346000FEF7D1FE05B000BD08B501210820FDF72B
:1034700089FE4FF48070ADF8000010208DF8030035
:1034800003208DF802006946D448FDF7BFFB0121F7
:103490000820FDF777FE4FF40070ADF80000694694
:1034A000CE48FDF7B3FB08BD10B5FFF7DDFFFFF712
:1034B00091FF4FF40071C948FDF755FC4FF480713E
:1034C000C648FDF752FC10BD10B54FF40071C3485B
:1034D000FDF74BFCC348FFF744FF4FF40071BF48B2
:1034E000FDF741FC10BD2DE9F04106460C4615469E
:1034F0001F46BD48B0F800046FF30E00BA49A1F8AA
:1035000000043246B9A1B64800F0A3FB1CB915B9B6
:103510000120BDE8F0814FF47A7107FB01F0FFF75D
:1035200020FF0020B049B1F80014C1F30E01AE4AEB
:1035300050541146AFA001F0ADFEB4B1ADB121467B
:10354000A94801F055FE08B1012000E0002040B973
:103550002946A54801F04CFE08B1012000E00020FA
:1035600008B10120D5E70020D3E744B121469E48A9
:1035700001F03EFE08B10120CBE70020C9E7294653
:10358000994801F035FE08B10120C2E70020C0E7EC
:1035900010B500244FF400719048FDF7E4FB964805
:1035A000FFF7DFFE0CE04FF4FA73002293A194A022
:1035B000FFF799FF00B110BDFFF786FF601CC4B292
:1035C0000A2CF0DB00BFF6E710B5044624B1012C4D
:1035D0000AD0022C18D10FE040F6C41389A287A1AB
:1035E0008BA0FFF780FF10BD40F6C41385A283A116
:1035F0008AA0FFF778FFF6E740F6C41381A27FA107
:1036000089A0FFF770FFEEE70020ECE730B59FB030
:1036100004460D462B46224686A101A801F04AFE2B
:1036200041F28833002275A101A8FFF75CFF1FB0AB
:1036300030BD70B5A0B004460D4616462B46224656
:1036400081A102A8009601F035FE4FF47A730022A2
:103650006AA102A8FFF747FF20B070BD10B586B081
:1036600004460CB1012000E0002002467CA101A824
:1036700001F020FE4FF4FA73002260A101A8FFF7C9
:1036800032FF06B010BDF0B5B9B006460F4614467D
:103690001D46642120A801F0A0FD16B1012E10D115
:1036A00007E03B4672A273A120A8009401F002FE3D
:1036B00008E03B4673A26FA120A8009401F0FAFD38
:1036C00000E000BF00BF052D06DA20AB2A466EA140
:1036D00002A801F0EFFD04E020AA70A102A801F009
:1036E000E9FD4FF47A6371A244A102A8FFF7FBFE43
:1036F00039B0F0BD70B5BCB004460D461646FCB1FD
:103700002B4601226DA11EA801F0D4FD324670A106
:10371000684601F0CFFD4FF4FA73002237A11EA8CE
:10372000FFF7E1FE50B14FF4FA73002233A168466F
:10373000FFF7D9FE10B101203CB070BD0020FBE7BF
:103740002B4600225DA11EA801F0B4FD4FF4FA73D0
:1037500000222AA11EA8FFF7C6FEEDE710B54FF420
:10376000FA73002225A15EA0FFF7BDFEA0B160A103
:103770001D4801F03DFD08B1022010BD5FA11A48AF
:1037800001F036FD08B10320F7E75FA1164801F00C
:103790002FFD08B10420F0E70020EEE710B500246B
:1037A0004FF4FA73002215A14DA0FFF79CFE0028EC
:1037B00012D058A10C4801F01BFD10B144F00104D7
:1037C00001E024F0010457A1074801F011FD10B1F8
:1037D00044F00204B0E0ADE0CCE00000000C014099
:1037E0000048004020A107003404002025730D0A82
:1037F000000000002573000040420F004F4B000006
:10380000415400006E6F206368616E6765000000C0
:1038100041542B43574D4F44453D310041542B43B8
:10382000574D4F44453D320041542B43574D4F4473
:10383000453D330041542B43574A41503D222573A7
:10384000222C22257322000041542B435753415010
:103850003D222573222C222573222C312C25640035
:1038600041542B4349504D55583D256400000000FC
:1038700054435000222573222C222573222C2573B9
:10388000000000005544500041542B43495053540C
:103890004152543D25642C257300000041542B43B4
:1038A000495053544152543D25730000414C5245F8
:1038B000415920434F4E4E454354000041542B4341
:1038C00049505345525645523D25642C25730000FE
:1038D00041542B43495053544F3D25730000000081
:1038E00041542B4349505354415455530000000058
:1038F0005354415455533A320D0A00005354415425
:1039000055533A330D0A00005354415455533A3439
:103910000D0A00002B4349505354415455533A303B
:103920002C0000002B4349505354415455533A3115
:103930002C00000024F002047DA1814801F058FC15
:1039400010B144F0040401E024F004047DA17C489B
:1039500001F04EFC10B144F0080401E024F008042A
:103960007CA1774801F044FC10B144F0100401E060
:1039700024F01004204610BD2DE9F04105460F4605
:103980004FF4FA730022AFF28C1176A0FFF7ABFD73
:1039900077A16B4801F02CFC06460EB1B61D02E083
:1039A0000020BDE8F081002409E0305D2855285D45
:1039B000222802D10020285503E0601CC4B2BC427A
:1039C000F3DB00BF0120ECE710B54FF4FA730022DF
:1039D000AFF2D81168A0FFF786FD08B9002010BD2E
:1039E0004FF4FA7368A2AFF2EC1168A0FFF77BFD09
:1039F000F5E710B56848FFF7B4FC68A1684800F027
:103A000028F96848FFF7ADFC10BD2DE9F04186B0FC
:103A100007460C4615461E464FF0000847B12246A1
:103A2000AFF230215E4800F014F94FF001081CE0BD
:103A3000052E06DAAB1C32465BA101A801F03AFC68
:103A400004E0AA1C5DA101A801F034FC4FF47A73D4
:103A500000225EA101A8FFF746FD4FF47A73002211
:103A60005BA12046FFF73FFD8046404606B0BDE81B
:103A7000F08170B5044600253148B0F800046FF3BA
:103A80000E002F49A1F800040846B0F8000420F405
:103A90000040A1F8000400BF2948B0F80004C00BA2
:103AA0000028F9D000202649B1F80014C1F30E0116
:103AB000234A50540CB1154605E047A1204801F0B7
:103AC00097FB00B11E4D284670BD10B588B0044666
:103AD000224643A1684601F0EDFB41F28833002203
:103AE000AFF2E8216846FFF7FEFC10B1012008B0F4
:103AF00010BD0020FBE710B5044621462848FEF71C
:103B0000EFFB00BF40212648FEF758FC0028F9D003
:103B100010BD70B504460D4603E014F8010BFFF725
:103B2000EAFF281EA5F10101CDB2F6D170BD00005B
:103B30002B4349505354415455533A322C00000002
:103B4000340400202B4349505354415455533A33C5
:103B50002C0000002B4349505354415455533A34E0
:103B60002C00000041542B434946535200000000F2
:103B7000415049502C22000041542B4349504D4F95
:103B800044453D31000000003E00000041542B43FD
:103B9000495053454E44000040420F002B2B2B0050
:103BA0000048004020A1070041542B434950534591
:103BB0004E443D25642C25640000000041542B43F5
:103BC000495053454E443D25640000003E2000000E
:103BD00053454E44204F4B002B49504400000000F9
:103BE00041542B43495041503D222573220000008F
:103BF000F0B503460D461646002729460A2E03D087
:103C0000002008702846F0BD33B9302001F8010BC0
:103C1000002008702846F6E7002B03DA2D2001F873
:103C2000010B5B4242F210720DE093FBF2F404B917
:103C300037B104F1300001F8010B04FB1233012706
:103C40000A2092FBF0F2002AEFDC002008702846E0
:103C5000D9E70FB470B586B006460CA8019073E0A2
:103C60000B9800785C281CD10B98401C0B900078B6
:103C70006E2809D072280FD10D213046FEF730FB97
:103C80000B98401C0B900BE00A213046FEF728FBF6
:103C90000B98401C0B9003E00B98401C0B9000BF4E
:103CA0004BE00B980078252840D10B98401C0B90D6
:103CB0000078642818D0732833D1019810C8019077
:103CC0000BE021783046FEF70BFB00BF8021304629
:103CD000FEF774FB0028F9D0641C20780028F0D18E
:103CE0000B98401C0B9020E0019820C801900A22FC
:103CF00002A92846FFF77CFF02AC0BE02178304692
:103D0000FEF7EEFA00BF80213046FEF757FB002891
:103D1000F9D0641C20780028F0D10B98401C0B903F
:103D200003E00B98401C0B9000BF06E00B9810F8C6
:103D3000011B0B903046FEF7D3FA00BF80213046BE
:103D4000FEF73CFB0028F9D00B980078002887D1BB
:103D500006B070BC5DF814FB08B501214020FDF7EA
:103D600011FA4020ADF8000010208DF80300032068
:103D70008DF8020069465148FCF748FF08BD10B5B0
:103D8000FFF7EAFF40214D48FCF7EDFF10BD08B5F5
:103D90004020ADF8000048208DF8030069464748F0
:103DA000FCF734FF08BD08B54020ADF80000102036
:103DB0008DF8030003208DF8020069463F48FCF7A8
:103DC00025FF08BD70B50025002424E000BF402178
:103DD0003A48FCF7AEFF0028F9D02820FFF7C1FAD7
:103DE00040213648FCF7A5FF01280DD100BF402136
:103DF0003248FCF79EFF0128F9D0C4F107010120E9
:103E00008840C0B2054304E0C4F1070101208840A6
:103E10008543601CC4B2082CD8DB284670BD10B5A1
:103E20000446FFF7C0FF40212448FCF79EFF44F200
:103E30005060FFF796FA40212048FCF794FF1E20BF
:103E4000FFF78FFAFFF7A3FF40211C48FCF771FF33
:103E500080BB00BF40211948FCF76BFF0028F9D058
:103E600000BF40211548FCF764FF0128F9D0FFF797
:103E7000A9FF2070FFF7A6FF6070FFF7A3FFA070F7
:103E8000FFF7A0FFE070FFF79DFF2071FFF78BFFAA
:103E900040210A48FCF767FF207861780844A17840
:103EA0000844E17808442179884201D1012010BDFD
:103EB0000020FCE7FFE70020F9E7000000180140C0
:103EC0002DE9F04104460D4616461F46FC480460A5
:103ED00085808660878102469188106801F07DF9AF
:103EE000F74A9189906801F078F9F549486A804766
:103EF000F448FFF736FAF249486A8047F148FFF77D
:103F000030FABDE8F08170B505460C46E1B22846AE
:103F1000FFF7FFFD70BD2DE9FE4306460F4615462F
:103F20004FF00308304601F075F90290384601F071
:103F300071F90190284601F06DF900900020E049E8
:103F4000888102980C300199891C01440098801CDA
:103F50000C181021DA4882898089401CD84B98813E
:103F600018468068815400BF2046E21704EB526275
:103F7000D211A4EBC212D1B2E21704EB5262D411F7
:103F8000002C01DD41F08001CD4882898089401CF0
:103F9000CB4B9881184680688154002CE4DC0022C9
:103FA000184681898089401C98811846806842544F
:103FB0000421184682898089401C988118468068AF
:103FC00081544D22184681898089401C9881184669
:103FD000806842545121184682898089401C98810A
:103FE0001846806881545421184682898089401C73
:103FF00098811846806881545422184681898089A6
:10400000401C9881184680684254042218468189D1
:104010008089401C9881184680684254C222184604
:1040200081898089401C988118468068425400210B
:10403000184682898089401C98811846806881547E
:104040003C21184682898089401C988118468068E6
:1040500081549DF80920184681898089401C9881E7
:104060001846806842549DF8081018468289808955
:10407000401C9881184680688154194689681A4600
:10408000928988183146029A01F08EF88C4880890E
:10409000029908448A4988810198002823DD9DF807
:1040A0000510874882898089401C854B9881184675
:1040B000806881549DF80410184682898089401CCC
:1040C0009881184680688154194689681A469289F1
:1040D00088183946019A01F067F879488089019972
:1040E0000844774988810098002823DD9DF8011055
:1040F000734882898089401C714B9881184680687A
:1041000081549DF80010184682898089401C98814E
:10411000184680688154194689681A469289881819
:104120002946009A01F040F86548808900990844C2
:104130006349888127E0624A9188106801F04DF850
:104140005F4A91899068FFF7DEFE4FF01E0913E089
:104150005B48006800785C490978884209D1584872
:104160000068407858494978884202D10120BDE86A
:10417000FE835448FFF7F5F8B9F10000A9F10101F9
:1041800001F0FF09E4D1B8F10000A8F1010101F04C
:10419000FF08D0D100BFEAE72DE9F84306460F46F5
:1041A00015464FF00208304601F034F800900098B0
:1041B000001D0DB1012100E00021441800204049FC
:1041C000888155B182213E4882898089401C3C4BC0
:1041D000988118468068815409E0A2213848828974
:1041E0008089401C364B988118468068815400BFF6
:1041F0002046E21704EB5262D211A4EBC212D1B2F4
:10420000E21704EB5262D411002C01DD41F0800171
:104210002B4882898089401C294B988118468068E8
:104220008154002CE4DC0021184682898089401CDE
:1042300098811846806881540121184682898089B6
:10424000401C98811846806881549DF801101846DA
:1042500082898089401C98811846806881549DF825
:104260000010184682898089401C98811846806811
:104270008154194689681A46928988183146009AED
:1042800000F092FF0E488089009908440C4988810B
:1042900045B1084681898089401C094A90811046B1
:1042A000806847542DE0064A9188106800F095FF19
:1042B000034A91899068FFF726FE4FF01E0919E026
:1042C00048000020A08601004856000863480068A6
:1042D000007863490978884209D1604800684078CD
:1042E0005F494978884202D10120BDE8F8835D48E2
:1042F000FFF737F8B9F10000A9F1010101F0FF095A
:10430000E4D1B8F10000A8F1010101F0FF08CAD121
:10431000B8F1000F01D00120E7E70020E5E72DE923
:10432000F843074688461646384600F073FF00906B
:10433000404600F06FFF05460020484988811EB1C5
:104340000098001D441902E00098801C4419302197
:10435000424882898089401C404B98811846806879
:10436000815400BF2046E21704EB5262D211A4EB45
:10437000C212D1B2E21704EB5262D411002C01DD5B
:1043800041F08001354882898089401C334B9881F7
:10439000184680688154002CE4DC9DF80110184612
:1043A00082898089401C98811846806881549DF8D4
:1043B0000020184681898089401C988118468068B1
:1043C0004254194689681A46928988183946009AD3
:1043D00000F0EAFE21488089009908441F4988813D
:1043E000CEB1214841781D4882898089401C1B4BF1
:1043F00098811846806881541B4802781846818944
:104400008089401C9881184680684254164800886C
:10441000401C1549088011498968104A92898818FA
:104420002A46414600F0C0FE0C48808928440B49CA
:1044300088810A4691899068FFF765FD0748007BEF
:10444000BDE8F88310B502210848FFF75CFD10BDF8
:1044500010B502210648FFF756FD10BD48000020A8
:1044600052560008A0860100700000204E56000839
:104470004C56000801B502E00098401E00900098DC
:104480000028F9D108BD08B501216020FCF77AFEAB
:1044900003208DF8020018208DF803004FF48040AF
:1044A000ADF800006946FE48FCF7B0FB4FF4004051
:1044B000ADF800006946FA48FCF7A8FB0120ADF80A
:1044C00000006946F648FCF7A1FB0220ADF80000A9
:1044D0006946F348FCF79AFB8020ADF80000694676
:1044E000F048FCF793FB4FF48070ADF8000069468C
:1044F000EC48FCF78BFB4FF40070ADF80000694608
:10450000E848FCF783FB4FF48060ADF80000694693
:10451000E448FCF77BFB4FF40060ADF8000069460F
:10452000E048FCF773FB4FF48050ADF8000069469B
:10453000DC48FCF76BFB4FF40050ADF80000694617
:10454000D848FCF763FB4FF48040ADF800006946A3
:10455000D448FCF75BFB4FF40040ADF8000069461F
:10456000D048FCF753FB4FF48070ADF8000069466B
:10457000CB48FCF74BFB4FF40070ADF800006946E8
:10458000C748FCF743FB4FF48060ADF80000694674
:10459000C348FCF73BFB03208DF8020018208DF880
:1045A00003001020ADF800006946BD48FCF72EFB63
:1045B0002020ADF800006946B948FCF727FB8020B1
:1045C000ADF800006946B648FCF720FB4FF40060E8
:1045D000ADF800006946B248FCF718FB10208DF8D2
:1045E000030003208DF802000220ADF800006946A8
:1045F000AC48FCF70BFB10208DF8030003208DF86E
:1046000002004FF48050ADF800006946A448FCF762
:10461000FDFA08BD00B597B001210802FCF7A5FD21
:104620000120019004200390800607900020029052
:104630000490059006900890099008200A90102098
:104640000B9000200C900E900F9010904FF4805023
:104650001190002012901390149001A815901690BC
:1046600008A8FBF7B9FF01210020FCF71DF917B0DE
:1046700000BD10B5CF2000F003FE002000F004FEC6
:10468000812000F001FE302000F0FEFDED2000F062
:10469000F7FD642000F0F8FD032000F0F5FD122086
:1046A00000F0F2FD812000F0EFFDE82000F0E8FDD1
:1046B000852000F0E9FD102000F0E6FD782000F0F4
:1046C000E3FDCB2000F0DCFD392000F0DDFD2C20E7
:1046D00000F0DAFD002000F0D7FD342000F0D4FD1A
:1046E000022000F0D1FDF72000F0CAFD202000F0EC
:1046F000CBFDEA2000F0C4FD002000F0C5FD002045
:1047000000F0C2FDB12000F0BBFD002000F0BCFDB8
:104710001B2000F0B9FDB62000F0B2FD0A2000F029
:10472000B3FDA22000F0B0FDC02000F0A9FD3520AF
:1047300000F0AAFDC12000F0A3FD112000F0A4FDAF
:10474000C52000F09DFD452000F09EFD452000F0B5
:104750009BFDC72000F094FDA22000F095FDF22003
:1047600000F08EFD002000F08FFD262000F088FD77
:10477000012000F089FDE02000F082FD0F2000F014
:1047800083FD262000F080FD242000F07DFD0B201D
:1047900000F07AFD0E2000F077FD092000F074FD96
:1047A000542000F071FDA82000F06EFD462000F0BE
:1047B0006BFD0C2000F068FD172000F065FD09205E
:1047C00000F062FD0F2000F05FFD072000F05CFDAF
:1047D000002000F059FDE12000F052FD002000F023
:1047E00053FD192000F050FD1B2000F04DFD04206A
:1047F00000F04AFD102000F047FD072000F044FDC6
:104800002A2000F041FD472000F03EFD392000F055
:104810003BFD032000F038FD062000F035FD0620AA
:1048200000F032FD302000F02FFD382000F02CFD8C
:104830000F2000F029FD362000F022FDC82000F0F6
:1048400023FD2A2000F01CFD002000F01DFD0020AB
:1048500000F01AFD002000F017FDEF2000F014FD1D
:104860002B2000F00DFD002000F00EFD002000F0D8
:104870000BFD012000F008FD3F2000F005FD3A206F
:1048800000F0FEFC552000F0FFFC112000F0F8FCC9
:104890000548FFF7EFFD292000F0F2FC10BD0000F5
:1048A0000014014000180140FCBF020010B504468E
:1048B000072C00DD10BDFE480470204604EBD071CB
:1048C0004910A4EB410139B9F020FA4908804FF4AE
:1048D000A070F949088006E04FF4A070F5490880FF
:1048E000F020F5490880362000F0CAFC082141EA92
:1048F000441000F0C9FC2A2000F0C2FC002000F0A7
:10490000C3FC002000F0C0FCEA490988491EC1F33D
:10491000072000F0B9FCE7490978491EC8B200F049
:10492000B3FC2B2000F0ACFC002000F0ADFC00201C
:1049300000F0AAFCE0490988491EC1F3072000F0F5
:10494000A3FCDD490978491EC8B200F09DFC2C206B
:1049500000F096FC00BFADE710B50221D748FCF788
:1049600004FA40F6FF20FFF785FD0221D348FCF74B
:10497000FAF940F6FF20FFF77DFD10BD10B50446A3
:104980002CB14FF48051CE48FCF7EFF904E04FF41E
:104990008051CB48FCF7E7F910BD10B5FFF773FD68
:1049A000FFF738FE0120FFF7E9FFFFF7D5FFFFF71C
:1049B00060FEBF480078FFF779FF10BD2DE9F04198
:1049C00004460D4616461F462A2000F059FC2012C8
:1049D00000F05AFCE0B200F057FCA119491EC1F3E7
:1049E0000F2000F051FCA119491EC8B200F04CFC88
:1049F0002B2000F045FC281200F046FCE8B200F045
:104A000043FCE919491EC1F30F2000F03DFCE919F0
:104A1000491EC8B200F038FCBDE8F08170B504460C
:104A20000D4601231A4629462046FFF7C7FF70BDF1
:104A300070B504460D4600262C2000F021FC00BF76
:104A400003E0284600F020FC761CA642F9D370BD96
:104A50002DE9F04106460F4614461D462B462246D8
:104A600039463046FFF7AAFF04FB05F0954909884F
:104A7000FFF7DEFFBDE8F08170B505460C468D48B6
:104A8000008885420CDA8C480088844208DA214686
:104A90002846FFF7C3FF8C4801880120FFF7C8FFB5
:104AA00070BD70B50024002500262E2000F0E8FB24
:104AB00000F0E0FB044600F0DDFB044600F0DAFB0A
:104AC000064600F0D7FB0546E012C002A91240EAF4
:104AD000411040EAE62070BD70B504460D462946F7
:104AE0002046FFF79BFFFFF7DCFF0646304670BD10
:104AF0002DE9FF4F83B081464FF0000AD346059859
:104B0000A0EB090504990698461ACDF8049004987C
:104B10000090002D01DD012705E00DB9002702E01E
:104B20004FF0FF376D42002E02DD4FF0010806E026
:104B300016B94FF0000802E04FF0FF387642B54258
:104B400001DD2C4600E034460020029019E0DDE94A
:104B50000010FFF791FFAA44B344A24505DDAAEB7C
:104B6000040A0198384480B20190A34505DDABEBFF
:104B7000040B0098404480B200900298401C80B220
:104B80000290611C02988842E1DD07B0BDE8F08F19
:104B90002DE9F04104460D4616461F46DDF8188003
:104BA000B8F1000F0CD03B46324629462046FFF7AD
:104BB00005FF06FB07F044490988FFF739FF27E0A6
:104BC000A019401E82B22B4629462046FFF790FFCF
:104BD000E819401E83B2A019401E82B2E819401E97
:104BE00081B22046FFF784FFE819401E83B22246B7
:104BF00029462046FFF77CFFE919491E8BB2A1190F
:104C0000491E8AB2A119491E88B22946FFF770FFD2
:104C1000BDE8F0812DE9F05F05460E4691469B46C2
:104C200000240FFA89F70320A0EB49000FFA80FA5D
:104C300097E0BBF1000F50D0A0464BE006EB080216
:104C400091B22A1990B2FFF717FF06EB080291B252
:104C50002A1B90B2FFF710FF321991B2A5EB0802A0
:104C600090B2FFF709FF321B91B2A5EB080290B298
:104C7000FFF702FFA6EB080291B22A1B90B2FFF7E2
:104C8000FBFEA6EB080291B22A1990B2FFF7F4FEE0
:104C9000321B91B205EB080290B2FFF7EDFE32191C
:104CA00091B205EB080290B2FFF7E6FE0EE00000BD
:104CB00078000020740000207600002000180140D9
:104CC00000140140820000208000002008F1010053
:104CD0000FFA80F8B845B1DD2FE0F21991B22A1928
:104CE00090B2FFF7C9FEF21991B22A1B90B2FFF7FA
:104CF000C3FE321991B2EA1B90B2FFF7BDFE321B20
:104D000091B2EA1B90B2FFF7B7FEF21B91B22A1BD9
:104D100090B2FFF7B1FEF21B91B22A1990B2FFF7E1
:104D2000ABFE321B91B2EA1990B2FFF7A5FE321921
:104D300091B2EA1990B2FFF79FFE601C04B2BAF17B
:104D4000000F05DAA000801D50440FFA80FA07E03A
:104D5000E01B80000A3050440FFA80FA781E07B238
:104D600000BFBC427FF765AFBDE8F09F2DE9F05F63
:104D7000804689461646A6F120001FFA80FA75493A
:104D800009688988734A1268D28801FB02F0C1174A
:104D900000EB5171C1F3C7076E48006800680AFB59
:104DA000070B6C480068C3886A48006882884946D7
:104DB0004046FFF703FE2C2000F062FA002416E0C4
:104DC000002510E01BF8040080212941084020B193
:104DD0006148008800F058FA03E06048008800F05D
:104DE00053FA681CC5B2082DECDB601CC4B2BC428F
:104DF000E6DBBDE8F09F70B504460D46002624E0D2
:104E000030465449096889880844554909888842C8
:104E100005DD00264F480068C088204484B2204643
:104E20004C490968C98808444E490988884201DD0F
:104E3000002600242A7821463046FFF797FF6D1C94
:104E4000444800688088304486B228780028D7D14A
:104E500070BD70B505460E46144624E028463D490F
:104E60000968898808443E490988884205DD00258B
:104E700038480068C088304486B2304635490968F1
:104E8000C988084437490988884201DD0025002681
:104E9000227831462846FFF769FF641C2D480068D8
:104EA0008088284485B220780028D7D170BD70B59D
:104EB00005460E46144624E0304626490968C9884E
:104EC000084428490988884205DD002621480068F1
:104ED0008088284485B228461E4909688988084484
:104EE0001F490988884201DD0025002622783146C5
:104EF0002846FFF73BFF641C16480068C088304412
:104F000086B220780028D7D170BD1249086070475A
:104F1000104800687047104A1080104A118070478E
:104F20000D4A128802800D4A12880A8070470A4989
:104F30000880704709490880704770B50446FFF73C
:104F4000E7FFC5882B460648028821460020FFF768
:104F50007FFD70BD7C0000208000002082000020CA
:104F6000740000207600002010B510A000F092F927
:104F70004FF480711448FBF7F6FEFEF709FB0020A2
:104F8000FEF722FB11A114A0FEF740FB30B1002078
:104F9000FEF764FB14A000F07DF904E017A000F018
:104FA00079F9012010BD0020FCE700000D0AD5FDB5
:104FB000D4DAC5E4D6C32045535038323636202ED5
:104FC0002E2E2E2E2E0D0A00000C014031333732CA
:104FD00035373032303839004D4552435552595FDC
:104FE00044343439000000000D0AC5E4D6C32077EC
:104FF00069666920CDEAB1CF0D0A00000D0AC5E44B
:10500000D6C3207769666920CAA7B0DC0D0A000004
:1050100008B501210820FCF7B5F82020ADF8000004
:1050200010208DF8030003208DF802006946154812
:10503000FBF7ECFD01210820FCF7A4F80120ADF8F6
:10504000000069460F48FBF7E1FD01210820FCF74D
:1050500099F80220ADF8000069460A48FBF7D6FD32
:1050600008BD10B5FFF7D4FF20210648FBF77BFEF3
:1050700001210448FBF777FE02210248FBF773FE8B
:1050800010BD0000000C014008B501211420FCF700
:1050900079F80120ADF8000004208DF8030069467E
:1050A0001348FBF7B3FD4FF40050ADF800000420A7
:1050B0008DF8030069460F48FBF7A8FD08BD70B5E1
:1050C00004460D4629462046FBF733FE012808D149
:1050D00000BF29462046FBF72CFE0128F9D001200D
:1050E00070BD0020FCE710B5FFF7CEFF10BD00003B
:1050F000000801400010014008B54FF4E060FBF7E4
:1051000023F936208DF8000000208DF801000320DF
:105110008DF8020001208DF803006846FBF719F9AD
:1051200008BD0EB501211020FCF739F840F2E73038
:10513000ADF804004720ADF8000069460948FCF7C7
:1051400059F901210748FCF777FF0122114605486C
:10515000FCF7C7FC0EBD10B5FFF7CEFFFFF7E1FF70
:1051600010BD00000010004008B501210420FCF72C
:1051700009F84FF48070ADF8000010208DF803009E
:1051800003208DF8020069460648FBF73FFD08BD85
:1051900010B5FFF7E9FF4FF480710248FBF7E5FD1A
:1051A00010BD00000008014040EA01039B0703D046
:1051B00009E008C9121F08C0042AFAD203E011F856
:1051C000013B00F8013B521EF9D27047D2B201E018
:1051D00000F8012B491EFBD270470022F6E710B5FC
:1051E00013460A4604461946FFF7F0FF204610BD55
:1051F00030B505462A460B4612F8010B13F8014B51
:1052000008B1A042F8D01CB1002802D06D1CF1E713
:10521000284630BD421C10F8011B0029FBD1801A22
:10522000704730B50B46014600202022012409E0DA
:1052300021FA02F59D4205D303FA02F5491B04FA4F
:1052400002F52844151EA2F10102F1DC30BD000078
:10525000064C074D06E0E06840F0010394E80700C3
:1052600098471034AC42F6D3FAF766FF3093000843
:105270005093000801480088704700000000026059
:105280004FF0C04108807047014908807047000016
:10529000000002600FB4054B10B503A9044A029840
:1052A00000F02CF810BC5DF814FB0000B5320008CB
:1052B000A00000200FB4084B10B504A902AA03985F
:1052C00000F01CF8044602A9002000F0B8F92046BE
:1052D00010BC5DF814FB00003F56000802E008C84F
:1052E000121F08C1002AFAD170477047002001E060
:1052F00001C1121F002AFBD1704700002DE9FF4FAA
:105300008BB088460546002606E025280BD0DDE94F
:105310000D1290476D1C761C28780028F5D10FB02F
:105320003046BDE8F08F0024A146A2460122AE49D6
:1053300000E0044315F8013F203B02FA03F0084265
:10534000F7D128782A2810D06FF02F022878A0F102
:105350003001092915D809EB890102EB410144F01C
:10536000020400EB01096D1CF0E758F8041B5FEA2A
:10537000010903D544F40054C9F1000944F00204C2
:105380006D1C28782E2817D115F8010F44F004045D
:105390002A280ED06FF02F022878A0F130010929B9
:1053A0000AD80AEB8A0102EB410100EB010A6D1CED
:1053B000F2E758F804AB6D1C28786C280FD006DC97
:1053C0004C2817D068280DD06A2814D104E074281E
:1053D00010D07A280FD10DE044F400140AE044F410
:1053E000801401E044F440146978814202D104F54C
:1053F00080146D1C6D1C2878692865D006DC002897
:105400008DD0632827D0642806D15DE06E2808D0AF
:1054100073282AD0752877D0DDE90D129047761CC5
:10542000E0E0C4F30250022809D003280DD0D8F8D8
:10543000001004280DD00E6008F10408D2E0D8F85E
:105440000010F217C1E90062F6E7D8F800100E80EC
:10545000F2E70E70F0E718F8041B8DF8001000203A
:105460008DF80100EB46012003E058F804BB4FF033
:10547000FF3061074FF0000701D40AE07F1C574559
:105480000DDA8742FADB1BF807100029F6D106E097
:105490007F1C8742FCDB1BF807100029F8D1DDE9EF
:1054A0000D23A9EB07008146214600F0B1F83044F6
:1054B000C61904E0DDE90D121BF8010B90477F1EB1
:1054C000F8D22146484688E058F8040BC4F302514C
:1054D0004FF00A0B032900D100B2042900D140B2D9
:1054E000002802DA40422D2102E0210505D52B21BA
:1054F0008DF82410012104E006E0E10710D02021FE
:10550000F6E708AF089113E058F8040BC4F3025112
:105510004FF00A0B032900D180B2042900D1C0B298
:105520000021EEE75946FFF77CFE303107F8011DF8
:105530000028F7D1ADEB070000F1200B600702D582
:1055400024F4803401E04FF0010ADA4502DDAAEBD1
:105550000B0000E00020824600EB0B01089801449C
:10556000A9EB01000A90E00306D4DDE90D232146F2
:105570000A9800F04DF806444FF0000908E009A928
:1055800011F80900DDE90D12904709F10109761CB7
:1055900008998945F3DBE0030CD5DDE90D232146AD
:1055A0000A9800F035F8064404E0DDE90D123020D9
:1055B0009047761CBAF10001AAF1010AF5DC05E07A
:1055C000DDE90D1217F8010B9047761CBBF10001C5
:1055D000ABF1010BF4DC0A982146DDE90D2300F064
:1055E00005F806446D1C97E6092801002DE9F041F5
:1055F000044600251E461746880404D405E03946B3
:105600002020B0476D1C641EF9D52846BDE8F08106
:105610002DE9F041044600251E469046C80301D5F9
:10562000302700E02027880404D505E041463846AD
:10563000B0476D1C641EF9D52846BDE8F0810A68A4
:10564000531C0B601070704720020000E000C00087
:10565000C0009003000000000000000000000000F7
:10566000000000000000001818181818180800089A
:105670001800000000000034242424000000000072
:10568000000000000000000016247F2424247E2453
:1056900024000000000000083E6848681C16121232
:1056A0007C10100000000061D29674081016294981
:1056B000C6000000000000003C646438724ACE4618
:1056C0007F000000000000181818180000000000FB
:1056D00000000000000000040818103030303010C6
:1056E00010180C04000000201008080C0404040C1E
:1056F00008181020000000080A341C6A0800000086
:10570000000000000000000000001818187F1818A2
:105710001800000000000000000000000000001859
:10572000180830000000000000000000003C0000ED
:105730000000000000000000000000000000001851
:10574000180000000000000206040C0808101020D9
:1057500020400000000000003C6642475B73426648
:105760003C000000000000001878480808080808FD
:105770007E000000000000003C46060604081020E1
:105780007E000000000000007C0606043C020206C9
:105790007C000000000000000C1C14246444FF0482
:1057A00004000000000000007E6060607E020206CF
:1057B0007C000000000000001E306048764242621B
:1057C0003C000000000000007E0206040C081810D7
:1057D00030000000000000003C6242361C6642427D
:1057E0003C000000000000003C664242661A0204D1
:1057F00078000000000000000000181800000018E9
:105800001800000000000000000018180000001838
:105810001808300000000000000004183060100C70
:105820000600000000000000000000007E007E0076
:1058300000000000000000000000301804060C10FA
:1058400020000000000000301C06060618100010A2
:10585000100000000000001C224141DDB5A5A5AFED
:1058600094C0403C00000000181C342426627E4393
:10587000C1000000000000007C4642467C424242DB
:105880007C000000000000001E20404040404060BE
:105890003E000000000000007C4642434343424675
:1058A00078000000000000007E6060607E60606044
:1058B0007E000000000000007E6060607E6060602E
:1058C00060000000000000001E604040CE424262C6
:1058D0003E00000000000000424242427E4242423E
:1058E00042000000000000007E1818181818181850
:1058F0007E000000000000007C0404040404044452
:1059000078000000000000004244485070584C44A9
:105910004200000000000000202020202020202045
:105920003E000000000000006266675F5B5BC1C173
:10593000C100000000000000626272525A4A4E46E6
:1059400046000000000000003C6243C3C3C3436242
:105950003C000000000000007C4642424678404087
:1059600040000000000000003C6243C3C3C3436228
:105970003C180F00000000007C6662667C6C646668
:1059800062000000000000003E6040601C06020251
:105990007C000000000000007F1818181818181864
:1059A00018000000000000004242424242424262AF
:1059B0003C00000000000000C14342622624341C69
:1059C0001800000000000000C1C141495B5B766621
:1059D000660000000000000043663418181C2466AE
:1059E000C300000000000000C14266341C181818F3
:1059F00018000000000000007E02040C1810206057
:105A00007E0000000000001C10101010101010107C
:105A10001010101C000000402020101008080C047A
:105A2000060200000000003C0C0C0C0C0C0C0C0CD2
:105A30000C0C0C3C00000000181C2462000000004C
:105A40000000000000000000000000000000000056
:105A5000000000FF00000020100000000000000017
:105A6000000000000000000000003C06023E42462C
:105A70007A0000000000004040405C624242424226
:105A80007C0000000000000000001E20604060203C
:105A90003E0000000000000202023E6242424266F6
:105AA0003A0000000000000000003C62427E4060BE
:105AB0003E0000000000000F1810107E10101010A3
:105AC000100000000000000000003F6642665840E1
:105AD0003E43423C0000004040405C624242424241
